:020000040000FA
:100000000C9462000C948A000C948A000C948A0070
:100010000C948A000C948A000C948A000C948A0038
:100020000C948A000C948A000C948A000C948A0028
:100030000C948A000C948A000C948A000C948A0018
:100040000C9450030C948A000C941E030C94F80238
:100050000C948A000C948A000C948A000C948A00F8
:100060000C948A000C948A000000000024002700F1
:100070002A0000000000250028002B0000000000DE
:1000800023002600290004040404040404040202DA
:100090000202020203030303030301020408102007
:1000A0004080010204081020010204081020000012
:1000B0000008000201000003040700000000000027
:1000C0000000380711241FBECFEFD8E0DEBFCDBF40
:1000D00022E0A2E4B1E001C01D92A030B207E1F736
:1000E00011E0A0E0B1E0E0EDF3E102C005900D9277
:1000F000A234B107D9F710E0C2E6D0E004C02197DE
:10010000FE010E94EE07C136D107C9F70E949A038B
:100110000C94E6090C940000AF92BF92CF92DF924C
:10012000EF92FF920F931F93CF93DF936C017B01AC
:100130008B01040F151FEB015E01AE18BF08C0173D
:10014000D10759F06991D601ED91FC910190F081B0
:10015000E02DC6010995892B79F7C501DF91CF9173
:100160001F910F91FF90EF90DF90CF90BF90AF90D5
:100170000895FC01538D448D252F30E0842F90E0AD
:10018000821B930B541710F0CF9608950197089592
:10019000FC01918D828D981761F0A28DAE0FBF2F5B
:1001A000B11D5D968C91928D9F5F9F73928F90E0B1
:1001B00008958FEF9FEF0895FC01918D828D981720
:1001C00031F0828DE80FF11D858D90E008958FEF5D
:1001D0009FEF0895FC01918D228D892F90E0805C26
:1001E0009F4F821B91098F73992708958BE491E0AB
:1001F0000E94EA0021E0892B09F420E0822F089573
:1002000080E090E0892B29F00E94F60081110C9487
:1002100000000895FC01A48DA80FB92FB11DA35AA9
:10022000BF4F2C91848D90E001968F739927848F16
:10023000A689B7892C93A089B1898C918370806439
:100240008C93938D848D981306C00288F389E02DDA
:1002500080818F7D80830895EF92FF920F931F938B
:10026000CF93DF93EC0181E0888F9B8D8C8D981369
:100270001AC0E889F989808185FF15C09FB7F89475
:10028000EE89FF896083E889F989808183708064C1
:1002900080839FBF81E090E0DF91CF911F910F910C
:1002A000FF90EF900895F62E0B8D10E00F5F1F4F1B
:1002B0000F731127E02E8C8D8E110CC00FB607FC2A
:1002C000FACFE889F989808185FFF5CFCE010E94B8
:1002D0000A01F1CFEB8DEC0FFD2FF11DE35AFF4F1B
:1002E000F0829FB7F8940B8FEA89FB898081806246
:1002F000CFCFCF93DF93EC01888D8823B9F0AA8903
:10030000BB89E889F9898C9185FD03C0808186FDD0
:100310000DC00FB607FCF7CF8C9185FFF2CF80811F
:1003200085FFEDCFCE010E940A01E9CFDF91CF9189
:100330000895833081F028F4813099F08230A9F05B
:1003400008958730A9F08830C9F08430B1F48091E5
:1003500080008F7D03C0809180008F778093800024
:10036000089584B58F7784BD089584B58F7DFBCFC4
:100370008091B0008F778093B00008958091B00095
:100380008F7DF9CFCF93DF93282F30E0F901E2552D
:10039000FF4F8491F901E656FF4FD491F901EA57D6
:1003A000FF4FC491CC23A1F081110E949901EC2F41
:1003B000F0E0EE0FFF1FE458FF4FA591B491EC91D0
:1003C000ED2381E090E009F480E0DF91CF91089582
:1003D00080E090E0FACF1F93CF93DF93282F30E097
:1003E000F901E255FF4F8491F901E656FF4FD49190
:1003F000F901EA57FF4FC491CC23A9F0162F8111C0
:100400000E949901EC2FF0E0EE0FFF1FEE58FF4F16
:10041000A591B4918FB7F894EC91111108C0D095C3
:10042000DE23DC938FBFDF91CF911F910895DE2BE8
:10043000F8CFCF93DF9390E0FC01E656FF4F249175
:100440008A579F4FFC0184918823D1F090E0880F58
:10045000991FFC01E859FF4FA591B491FC01EE589A
:10046000FF4FC591D49161110EC09FB7F8948C9144
:10047000E22FE0958E238C932881E223E8839FBFAF
:10048000DF91CF9108958FB7F894EC91E22BEC9324
:100490008FBFF6CF3FB7F894809147019091480104
:1004A000A0914901B0914A0126B5A89B05C02F3FF4
:1004B00019F00196A11DB11D3FBFBA2FA92F982F8A
:1004C0008827BC01CD01620F711D811D911D42E085
:1004D000660F771F881F991F4A95D1F708952FB788
:1004E000F89460914301709144018091450190918D
:1004F00046012FBF08950F931F93CF93DF93EC0115
:1005000088819981009759F02A813B812617370706
:1005100030F081E0DF91CF911F910F9108958B0111
:100520006F5F7F4F0E941909009759F09983888364
:100530001B830A832C813D81232B59F7FC011082F8
:10054000E8CF80E0E7CFEF92FF920F931F93CF9316
:10055000DF9341155105B1F07B01EC010C811D8148
:10056000040F151FB8010E947B02882361F02881C7
:1005700039818C819D81B701820F931F0E94DF0911
:100580001D830C8381E0DF91CF911F910F91FF902C
:10059000EF900895EF92FF920F931F93CF93DF9305
:1005A00000D000D000D01F92CDB7DEB77C01CB01C8
:1005B0004AE08E010F5F1F4FB8010E946507F801E6
:1005C00001900020E9F73197AF01401B510BB801B2
:1005D000C7010E94A30227960FB6F894DEBF0FBE94
:1005E000CDBFDF91CF911F910F91FF90EF900895B4
:1005F0001F920F920FB60F9211242F933F934F9398
:100600005F936F937F938F939F93AF93BF93EF937A
:10061000FF938BE491E00E940A01FF91EF91BF915B
:10062000AF919F918F917F916F915F914F913F918A
:100630002F910F900FBE0F901F9018951F920F9241
:100640000FB60F9211242F938F939F93EF93FF93E5
:10065000E0915B01F0915C018081E0916101F0919A
:10066000620182FD1BC09081809164018F5F8F7356
:1006700020916501821741F0E0916401F0E0E55BB3
:10068000FE4F958F80936401FF91EF919F918F9121
:100690002F910F900FBE0F901F9018958081F4CF6F
:1006A0001F920F920FB60F9211242F933F938F93A7
:1006B0009F93AF93BF938091430190914401A09188
:1006C0004501B09146013091420123E0230F2D37BF
:1006D00058F50196A11DB11D20934201809343015D
:1006E00090934401A0934501B09346018091470146
:1006F00090914801A0914901B0914A010196A11D34
:10070000B11D8093470190934801A0934901B09394
:100710004A01BF91AF919F918F913F912F910F907F
:100720000FBE0F901F90189526E8230F0296A11D6B
:10073000B11DD2CFCF93DF93CDB7DEB72C970FB6D5
:10074000F894DEBF0FBECDBF789484B5826084BDBF
:1007500084B5816084BD85B5826085BD85B58160C5
:1007600085BD80916E00816080936E001092810043
:1007700080918100826080938100809181008160FE
:1007800080938100809180008160809380008091BF
:10079000B10084608093B1008091B000816080934B
:1007A000B00080917A00846080937A0080917A0012
:1007B000826080937A0080917A00816080937A00D1
:1007C00080917A00806880937A001092C10061E085
:1007D00085E00E94190261E085E00E94EB01E09152
:1007E0005B01F0915C0182E08083E0915B01F0911C
:1007F0005C011082E0915701F09158011082E09164
:100800005901F0915A0180E1808310926301E091D7
:100810005F01F091600186E08083E0915D01F091DD
:100820005E01808180618083E0915D01F0915E01D5
:10083000808188608083E0915D01F0915E0180811C
:1008400080688083E0915D01F0915E0180818F7D01
:10085000808361E086E00E94190260E086E00E94E9
:10086000EB0160E084E00E94190261E083E00E94F5
:10087000190261E082E00E94190261E081E10E94B8
:10088000190261E080E10E94190261E08FE00E949C
:10089000190261E08EE00E94190260E083E00E948C
:1008A000EB0160E082E00E94EB0160E081E10E94E8
:1008B000EB0160E080E10E94EB0160E08FE00E94CC
:1008C000EB0160E08EE00E94EB0160E087E00E94B7
:1008D00019028FB7F89498E19093600098E2909392
:1008E00060008FBF4AE0842E912C50E0252E50E00E
:1008F000352E01E010E087E00E94C201892B09F447
:10090000A3C010930501009304010E946F02C090E0
:10091000E801D090E901E090EA01F090EB016C1958
:100920007D098E099F09693E73408105910508F490
:100930000DC118861F821A8619861C861B8661E0E7
:1009400070E0CE0107960E947B022F8138858111CD
:1009500080C02115310519F0C9010E949008188640
:100960001F821C861B861A86198632E0C32E31E050
:10097000D32EF601B12CA12C80E021913191A20E51
:10098000B31E8F5F8F30C9F7F12CE12C8EE0E81693
:10099000F10409F066C0B501CE0107960E94CA02B3
:1009A00041E050E06AE371E0CE0107960E94A302A5
:1009B000FFEFEF1AFF0A22E0C20ED11C8FE0E8160B
:1009C000F10421F74B855C856F8178858BE491E09C
:1009D0000E948C0042E050E06EE371E08BE491E015
:1009E0000E948C008BE491E00E94EA00892B09F4BC
:1009F0002DC10E946F025B016C01412C512CF12C26
:100A0000E12C0E946F026A197B098C099D096436EA
:100A100071058105910508F019C18BE491E00E94F0
:100A2000EA00892B71F30E946F025B016C018BE479
:100A300091E00E94DC00849701F58BE491E00E9434
:100A4000C80044244394DDCF1092050110920401A4
:100A50005CCF1C870B8768E371E0C9010E94DF0946
:100A600084CFF60160817181CE0107960E94CA028F
:100A700041E050E06CE371E097CF8BE491E04420DB
:100A800009F4E1C00E94DC008097C1F4E52DF0E09C
:100A9000EE0FFF1F81E090E08C0F9D1FE80FF91F04
:100AA000C701B4010E94C6077183608353948BE42D
:100AB00091E00E94C80044244394A1CF8BE491E0CC
:100AC0000E94DC00CB9709F0B0C0E52DF0E0EE0FFE
:100AD000FF1F81E090E08C0F9D1FE80FF91FC701F9
:100AE000B4010E94C607718360838BE491E00E9489
:100AF000C800109307010093060129813A818B8178
:100B00009C81B901680F791F4D815E81641775075B
:100B100041F4309309012093080190930B018093D5
:100B20000A018F819885009711F00E9490080FB6F6
:100B3000F894DEBF0FBECDBF0E946F026093E80144
:100B40007093E9018093EA019093EB01E090020138
:100B5000F09003018091060190910701019709F03F
:100B60007AC00E946F026093EC017093ED01809354
:100B7000EE019093EF01F1E0EF16F10409F4E1C00A
:100B800008F4B7C082E0E816F10409F4DFC093E08E
:100B9000E916F10409F4D5C0809104019091050192
:100BA000019709F038C182E090E0909303018093AF
:100BB000020184E00E94C201892B09F442C1109312
:100BC00017010093160180910801909109018E3060
:100BD000910509F43CC18534910509F437C10D979D
:100BE00021F460E083E00E94EB0110920901109271
:100BF00008018091FB0181112CC160E08EE00E9410
:100C0000190261E08EE00E94EB01F1E0F093FB013C
:100C1000A8952114310409F46ECE0E94F6008823B1
:100C200009F469CE0E94000066CE8BE491E00E9438
:100C3000C800C0978E0D9F1DEAE0E89F7001E99FF4
:100C4000F00C1124FECE0E94C800DBCE10920701EA
:100C50001092060166CF0E946F024090EC01509006
:100C6000ED016090EE017090EF016419750986093D
:100C70009709613177428105910508F47CCF22E024
:100C8000E216F10409F462C08091140190911501FB
:100C9000892B09F066CF60E085E00E94EB010E949D
:100CA0004A022B013C0184EFA82EBB24B394C12C33
:100CB000D12C0E944A026419750986099709683E79
:100CC000734081059105A8F381E0A81AB108C10815
:100CD000D10898EE490E93E0591E611C711CA114B5
:100CE000B104C104D10429F761E085E00E94EB0161
:100CF00038CF0E946F02C090F101D090F201E090D5
:100D0000F301F090F4016C197D098E099F0961329D
:100D100073408105910508F43FCF6091F001F1E047
:100D20006F276093F00186E00E94EB010E946F0242
:100D30006093F1017093F2018093F3019093F401B9
:100D40002BCF61E086E00E94EB0126CF0E946F026C
:100D5000C090F701D090F801E090F901F090FA010D
:100D60006C197D098E099F09693C71058105910502
:100D700070F18091F60181112AC00E946F02609388
:100D8000F7017093F8018093F9019093FA01F090C4
:100D9000F50121E0F226F092F5016F2D86E00E9428
:100DA000EB018091000190910101F11005C00197C4
:100DB00090930101809300018091000190910101C5
:100DC000892B09F0E9CE81E08093F601E5CE0E94FF
:100DD0006F026C197D098E099F09693E7340810578
:100DE000910508F4D9CE8091F601882309F4D4CE78
:100DF0000E946F026093F7017093F8018093F901EC
:100E00009093FA011092F60182E090E09093010134
:100E100080930001C1CE8091060190910701019756
:100E200031F08091140190911501019729F41093EC
:100E3000030100930201BDCE109203011092020142
:100E4000B8CE1092170110921601BDCEFFCF61E00F
:100E5000C9CE8EE00E94C201892B29F4109315019E
:100E600000931401D5CE1092150110921401D0CE2A
:100E7000EBE4F1E01382128288EE93E0A0E0B0E0B0
:100E800084839583A683B7838AE291E091838083EC
:100E900085EC90E09587848784EC90E0978786873F
:100EA00080EC90E0918B808B81EC90E0938B828B37
:100EB00082EC90E0958B848B86EC90E0978B868B10
:100EC000118E128E138E148E0895BB27FB015527A9
:100ED000AA27880F991FAA1FA41710F0A41B839597
:100EE0005051B9F7A05DAA3308F0A95DA19300970E
:100EF00079F7B111B1931192CB010C947F07DC010A
:100F0000FC01672F71917723E1F7329704C07C9140
:100F10006D9370836291AE17BF07C8F308952F9247
:100F20003F924F925F926F927F928F929F92AF9279
:100F3000BF92CF92DF92EF92FF920F931F93CF93C6
:100F4000DF93CDB7DEB7CA1BDB0B0FB6F894DEBF5D
:100F50000FBECDBF09942A88398848885F846E8483
:100F60007D848C849B84AA84B984C884DF80EE80CD
:100F7000FD800C811B81AA81B981CE0FD11D0FB6D6
:100F8000F894DEBF0FBECDBFED01089597FB072E8D
:100F900016F4009407D077FD09D00E94DA0707FC09
:100FA00005D03EF4909581959F4F08957095619579
:100FB0007F4F0895AA1BBB1B51E107C0AA1FBB1F8F
:100FC000A617B70710F0A61BB70B881F991F5A95D5
:100FD000A9F780959095BC01CD010895EE0FFF1FF4
:100FE0000590F491E02D09940F931F93CF93DF9315
:100FF0008230910510F482E090E0E091FE01F091E2
:10100000FF0130E020E0B0E0A0E0309799F4211536
:10101000310509F44AC0281B390B24303105D8F5B5
:101020008A819B816115710589F1FB01938382831C
:10103000FE0111C040815181028113814817590777
:10104000E0F04817590799F4109761F012960C9345
:10105000129713961C933296CF01DF91CF911F9177
:101060000F9108950093FE011093FF01F4CF211515
:10107000310551F04217530738F0A901DB019A01FD
:10108000BD01DF01F801C1CFEF01F9CF9093FF015E
:101090008093FE01CDCFFE01E20FF31F8193919368
:1010A0002250310939832883D7CF2091FC01309118
:1010B000FD01232B41F42091220130912301309333
:1010C000FD012093FC012091200130912101211587
:1010D000310541F42DB73EB74091240150912501CF
:1010E000241B350BE091FC01F091FD01E217F307A1
:1010F000A0F42E1B3F0B2817390778F0AC014E5F88
:101100005F4F2417350748F04E0F5F1F5093FD01C6
:101110004093FC01819391939FCFF0E0E0E09CCF5E
:10112000CF93DF930097E9F0FC013297138212828C
:10113000A091FE01B091FF01ED0130E020E0109799
:10114000A1F420813181820F931F2091FC01309105
:10115000FD012817390709F061C0F093FD01E09304
:10116000FC01DF91CF910895EA01CE17DF07E8F582
:101170004A815B819E0141155105B1F7E901FB836D
:10118000EA8349915991C40FD51FEC17FD0761F40B
:10119000808191810296840F951FE901998388834C
:1011A000828193819B838A83F0E0E0E012968D91A7
:1011B0009C9113970097B9F52D913C911197CD0112
:1011C0000296820F931F2091FC013091FD01281798
:1011D000390739F6309751F51092FF011092FE0150
:1011E000B093FD01A093FC01BCCFD383C2834081A7
:1011F0005181840F951FC817D90761F44E5F5F4F67
:1012000088819981480F591F518340838A819B812E
:10121000938382832115310509F0B0CFF093FF014C
:10122000E093FE019ECFFD01DC01C0CF138212824C
:10123000D7CFB0E0A0E0EFE1F9E00C9491078C018A
:10124000009751F4CB010E94F4078C01C801CDB77F
:10125000DEB7E0E10C94AD07FC01E60FF71F9C013F
:1012600022503109E217F30708F49DC0D901CD914E
:10127000DC911197C617D70798F0C530D10530F328
:10128000CE0104978617970708F3C61BD70B229742
:10129000C193D1936D937C93CF010E949008D6CFD8
:1012A0005B01AC1ABD0A4C018C0E9D1EA091FE0183
:1012B000B091FF01512C412CF12CE12C109731F50C
:1012C0008091FC019091FD018815990509F05CC0A1
:1012D0004616570608F058C08091200190912101D0
:1012E000009741F48DB79EB740912401509125019C
:1012F000841B950BE817F90708F055C0F093FD0122
:10130000E093FC01F90171836083A0CF8D919C91E2
:10131000119712966C90129713967C901397A815BC
:10132000B90559F56C0142E0C40ED11CCA14DB04A6
:1013300020F1AC014A195B09DA011296159780F089
:101340006282738251834083D9016D937C93E1144F
:10135000F10471F0D7011396FC93EE93129776CFB8
:1013600022968C0F9D1FF90191838083F301EFCFAB
:10137000F093FF01E093FE0169CF4816590608F487
:101380002C017D01D3019ACFCB010E94F4077C018F
:10139000009749F0AE01B8010E94D609C8010E9429
:1013A0009008870153CF10E000E050CFFB01DC0133
:1013B00002C001900D9241505040D8F70895FB01B2
:1013C000DC0101900D920020E1F70895F894FFCF21
:1013D000020000000000000000000000000000000B
:1013E0000000000000000000000000006400000099
:1013F000000000028000000000002C018C00B900F9
:101400007901EA00C800DC0024003B0020000D0A3E
:021410000000DA
:107E0000112484B714BE81FFF0D085E080938100F7
:107E100082E08093C00088E18093C10086E0809377
:107E2000C20080E18093C4008EE0C9D0259A86E02C
:107E300020E33CEF91E0309385002093840096BBD3
:107E4000B09BFECF1D9AA8958150A9F7CC24DD24C4
:107E500088248394B5E0AB2EA1E19A2EF3E0BF2EE7
:107E6000A2D0813461F49FD0082FAFD0023811F036
:107E7000013811F484E001C083E08DD089C08234E0
:107E800011F484E103C0853419F485E0A6D080C0E4
:107E9000853579F488D0E82EFF2485D0082F10E0AE
:107EA000102F00270E291F29000F111F8ED06801E7
:107EB0006FC0863521F484E090D080E0DECF843638
:107EC00009F040C070D06FD0082F6DD080E0C81688
:107ED00080E7D80618F4F601B7BEE895C0E0D1E017
:107EE00062D089930C17E1F7F0E0CF16F0E7DF06D8
:107EF00018F0F601B7BEE89568D007B600FCFDCFD4
:107F0000A601A0E0B1E02C9130E011968C91119780
:107F100090E0982F8827822B932B1296FA010C0160
:107F200087BEE89511244E5F5F4FF1E0A038BF0790
:107F300051F7F601A7BEE89507B600FCFDCF97BE46
:107F4000E89526C08437B1F42ED02DD0F82E2BD052
:107F50003CD0F601EF2C8F010F5F1F4F84911BD097
:107F6000EA94F801C1F70894C11CD11CFA94CF0C13
:107F7000D11C0EC0853739F428D08EE10CD085E9AC
:107F80000AD08FE07ACF813511F488E018D01DD067
:107F900080E101D065CF982F8091C00085FFFCCF94
:107FA0009093C60008958091C00087FFFCCF809118
:107FB000C00084FD01C0A8958091C6000895E0E648
:107FC000F0E098E1908380830895EDDF803219F02E
:107FD00088E0F5DFFFCF84E1DECF1F93182FE3DFCA
:107FE0001150E9F7F2DF1F91089580E0E8DFEE27F6
:047FF000FF270994CA
:027FFE00040479
:00000001FF
